:100000000C9446000C9465000C9465000C946500FB
:100010000C9465000C9465000C9465000C946500CC
:100020000C9465000C9465000C9465000C946500BC
:100030000C9465000C94DE000C9465000C94650033
:100040000C9465000C9465000C9465000C9465009C
:100050000C9465000C9465000C9465000C9465008C
:100060000C9465000C9465000C9465000C9465007C
:100070000C9465000C9465000C9465000C9465006C
:100080000C9465000C9465000C94650011241FBE4F
:10009000CFEFD0E4DEBFCDBF11E0A0E0B1E0E2EFF2
:1000A000FDE000E00BBF02C007900D92AC34B10739
:1000B000D9F721E0ACE4B1E001C01D92AD38B20740
:1000C000E1F70E9456050C94F7060C940000CF93BC
:1000D000DF9300D01F92CDB7DEB789837B836A831D
:1000E00089818A3031F48A819B81BC018DE00E9434
:1000F000670080EC90E0FC018081882F90E08072A6
:100100009927892BB1F386EC90E02981FC012083AB
:1001100080E090E00F900F900F90DF91CF910895C5
:10012000CF93DF93CDB7DEB781E080934C01000021
:10013000DF91CF910895CF93DF93CDB7DEB781E8FC
:1001400090E0FC0110820000DF91CF910895CF93E1
:10015000DF93CDB7DEB781E890E02BE0FC01208390
:1001600088E890E02DE730E0FC01318320838FE6C2
:1001700090E022E0FC01208384E890E0FC01118201
:10018000108280910E0190910F01A0911001B09109
:10019000110180934D0190934E01A0934F01B093B4
:1001A00050018FE590E02FE530E0F90120812068D3
:1001B000FC0120830000DF91CF9108951F920F92E0
:1001C00000905F000F92112400905B000F922F931C
:1001D0003F934F935F936F937F938F939F93AF93CF
:1001E000BF93EF93FF93CF93DF93CDB7DEB78091AB
:1001F0004D0190914E01A0914F01B0915001019796
:10020000A109B10980934D0190934E01A0934F0134
:10021000B093500180914D0190914E01A0914F01FA
:10022000B0915001892B8A2B8B2B91F40E94900066
:1002300080910E0190910F01A0911001B0911101D8
:1002400080934D0190934E01A0934F01B0935001C4
:100250000000DF91CF91FF91EF91BF91AF919F91FE
:100260008F917F916F915F914F913F912F910F905F
:1002700000925B000F9000925F000F901F90189506
:10028000CF93DF9300D000D0CDB7DEB769837A83F8
:100290008B839C8389819A81AB81BC8180930E0181
:1002A00090930F01A0931001B093110180910E0162
:1002B00090910F01A0911001B091110180934D0117
:1002C00090934E01A0934F01B093500100000F9006
:1002D0000F900F900F90DF91CF910895CF93DF9300
:1002E000CDB7DEB72C970FB6F894DEBF0FBECDBFEB
:1002F0006D837E838F83988729873A874B875C87B6
:100300008D819E81AF81B88529853A854B855C8535
:10031000BC01CD010E94D506DC01CB0189839A8303
:10032000AB83BC8389819A81AB81BC81892B8A2B69
:100330008B2B29F489859A85AB85BC8511C089856D
:100340009A85AB85BC858D839E83AF83B887898171
:100350009A81AB81BC8189879A87AB87BC87D0CFD4
:10036000BC01CD012C960FB6F894DEBF0FBECDBFF9
:10037000DF91CF910895CF93DF9300D0CDB7DEB753
:100380009A83898389819A8182309105D9F183305A
:1003900091052CF4009771F0019789F074C08430B6
:1003A000910509F448C0843091058CF1059709F452
:1003B00056C069C081E090E09A83898367C080E27B
:1003C00090E0FC018081882F90E081709927892B33
:1003D00029F482E090E09A83898358C080E290E01B
:1003E000FC018081882F90E082709927892B29F465
:1003F00084E090E09A83898349C081E090E09A8309
:10040000898344C083E090E09A8389833FC080E27F
:1004100090E0FC018081882F90E081709927892BE2
:1004200029F483E090E09A83898330C081E090E0F2
:100430009A8389832BC080E290E0FC018081882F21
:1004400090E082709927892B29F485E090E09A83C7
:1004500089831CC084E090E09A83898317C080E27E
:1004600090E0FC018081882F90E082709927892B91
:1004700029F485E090E09A83898308C081E090E0C8
:100480009A83898303C01A821982000089819A8124
:100490008230910589F0833091052CF4009701F1A9
:1004A000019701F128C08430910581F084309105D5
:1004B000DCF00597D9F01FC0809119018230C0F49B
:1004C000809119018F5F8093190112C080911901E9
:1004D000882381F0809119018150809319010AC00D
:1004E000000009C0000007C0000005C0000003C0F4
:1004F000000001C0000089819A810F900F90DF9168
:10050000CF910895CF93DF9300D0CDB7DEB79A8314
:10051000898389819A8182309105E1F18330910547
:100520002CF4009779F0019791F084C08430910504
:1005300009F458C0843091050CF440C0059709F4C3
:1005400065C078C081E090E09A83898376C080E2BC
:1005500090E0FC018081882F90E084709927892B9E
:1005600029F482E090E09A83898367C080E290E07A
:10057000FC018081882F90E088709927892B29F4CD
:1005800084E090E09A83898358C081E090E09A8368
:10059000898353C080E290E0FC018081882F90E045
:1005A00084709927892B29F483E090E09A838983CA
:1005B00044C082E090E09A8389833FC080E290E06B
:1005C000FC018081882F90E084709927892B29F481
:1005D00083E090E09A83898330C081E090E09A8341
:1005E00089832BC080E290E0FC018081882F90E01D
:1005F00088709927892B29F485E090E09A83898374
:100600001CC084E090E09A83898317C080E290E068
:10061000FC018081882F90E088709927892B29F42C
:1006200085E090E09A83898308C081E090E09A8316
:10063000898303C01A821982000089819A818230DD
:10064000910589F0833091052CF4009701F1019711
:1006500001F128C08430910581F084309105DCF0EF
:100660000597D9F01FC0809140018230C0F480917D
:1006700040018F5F8093400112C080914001882328
:1006800081F0809140018150809340010AC00000B8
:1006900009C0000007C0000005C0000003C0000042
:1006A00001C0000089819A810F900F90DF91CF9156
:1006B0000895CF93DF9300D0CDB7DEB79A838983B7
:1006C00089819A818230910509F497C08330910520
:1006D00034F4009779F0019709F444C0ACC0843039
:1006E000910509F456C08430910504F1059709F489
:1006F00067C0A1C08BE290E020915801222F30E02A
:100700002A5E3E4FF9012081FC01208388E290E0BF
:1007100020E8FC01208380E880931A0181E0809327
:10072000410181E090E09A83898385C088E290E06E
:1007300021E0FC0120838BE290E020915801222FE0
:1007400030E02A5E3E4FF9012081FC01208380E8E1
:1007500080931A0181E08093410181E090E09A83C7
:10076000898369C08BE290E020911901222F30E04B
:100770002A5E3E4FF9012081FC01208388E290E04F
:1007800020911A01FC01208384E090E09A83898300
:1007900052C088E290E020914101FC0120838BE26D
:1007A00090E020914001222F30E0235C3E4FF90180
:1007B0002081FC01208385E090E09A8389833BC0FF
:1007C0008BE290E020913C01222F30E02D5C3E4FE7
:1007D000F9012081FC01208388E290E020913B0117
:1007E000222F30E0255D3E4FF9012081FC0120835E
:1007F00081E090E09A8389831EC080E290E0FC0152
:100800008081882F90E081709927892B51F080E2B8
:1008100090E0FC018081882F90E082709927892BDD
:1008200029F481E090E09A83898304C085E090E018
:100830009A838983000089819A810F900F90DF91BC
:10084000CF910895CF93DF9300D0CDB7DEB79A83D1
:10085000898389819A818230910529F183309105BC
:100860002CF4009749F0019761F046C08330910560
:10087000F9F00497E1F140C081E090E09A83898328
:100880003EC080E290E0FC018081882F90E0817082
:100890009927892B29F482E090E09A8389832FC0DD
:1008A0001A8219822CC082E090E09A83898327C043
:1008B0001092590180913C01882341F481E080939A
:1008C000570181E090E09A83898319C080913C01AF
:1008D000873041F481E08093560181E090E09A8373
:1008E00089830DC084E090E09A83898308C084E006
:1008F00090E09A83898303C01A821982000089815B
:100900009A818230910509F46AC0833091052CF4F4
:10091000009759F0019771F0C2C08330910509F436
:1009200068C0049709F4B2C0BAC010925601109280
:100930005701B5C0809156018823D1F480915701A9
:100940008823B1F48FEF809342011092430184E039
:1009500080933B0184E080933C0181E08093190106
:1009600081E080934001109256011092570194C08B
:10097000809156018823B9F081E080934201109262
:10098000430184E080933B0182E080933C0181E05D
:100990008093190181E080934001809154018F5F21
:1009A0008093540179C080915701882309F474C061
:1009B0008FEF809342011092430184E080933B01CA
:1009C00085E080933C0181E08093190181E0809370
:1009D0004001809155018F5F809355015DC0109259
:1009E000560110925701809159018F5F80935901F0
:1009F00056C01092590180913B0190914301890F9B
:100A000080933B0180913C0190914201890F80933A
:100A10003C0180913B01873020F480913B01882389
:100A200029F48091430181958093430180913C0199
:100A30008230A0F580913B01882359F480911901FF
:100A4000882361F581E08093420181E08093430136
:100A500025C080913B01813009F5809119018823DF
:100A600031F481E0809342011092430117C08091DC
:100A70001901813039F481E0809342018FEF809336
:100A800043010CC081E08093570108C080915A0156
:100A90008F5F80935A0103C0000001C0000089816C
:100AA0009A810F900F90DF91CF9108950F931F932C
:100AB000CF93DF93CDB7DEB72D970FB6F894DEBF97
:100AC0000FBECDBF81E290E0FC01108282E290E097
:100AD0002FEFFC01208387E290E02FEFFC012083C1
:100AE00088E290E0FC0110828AE290E02FEFFC01A6
:100AF00020838BE290E0FC01108288E0E4E4F1E0E6
:100B0000DE01169601900D928A95E1F784E090E05F
:100B10009C838B831D828D8180935B0181E090E0BB
:100B2000A0E0B0E080935C0190935D01A0935E0132
:100B3000B0935F0180915C0190915D01A0915E0195
:100B4000B0915F018093600190936101A093620175
:100B5000B09363018BEB91E0909365018093640106
:100B60008D818093660183E090E0A0E0B0E0809307
:100B7000670190936801A0936901B0936A01809125
:100B8000670190916801A0916901B0916A01809319
:100B90006B0190936C01A0936D01B0936E0189E598
:100BA00093E09093700180936F018D818093710128
:100BB00081E090E0A0E0B0E0809372019093730137
:100BC000A0937401B09375018091720190917301AB
:100BD000A0917401B0917501809376019093770193
:100BE000A0937801B093790182E892E090937B0121
:100BF00080937A018D8180937C0184E690E0A0E06F
:100C0000B0E080937D0190937E01A0937F01B0932B
:100C1000800180917D0190917E01A0917F01B09132
:100C200080018093810190938201A0938301B0930E
:100C3000840182E294E0909386018093850161E0D3
:100C400070E080E090E00E9440010E94A7001A82BC
:100C500019829BC089819A81880F991F9E012F5FFD
:100C60003F4F820F931F0596FC0180819181FC010B
:100C7000258136814781508589819A81880F991F06
:100C8000BE016F5F7F4F860F971F0596FC01808125
:100C90009181FC0181819281A381B4812817390758
:100CA0004A075B0709F045C089819A81880F991F1F
:100CB0009E012F5F3F4F820F931F0596FC0100811D
:100CC000118189819A81880F991F9E012F5F3F4F63
:100CD000820F931F0596FC0180819181FC01218583
:100CE000328589819A81880F991FAE014F5F5F4FCE
:100CF000840F951F0596FC0180819181FC01808104
:100D0000082E000C990BF9010995F801808389815F
:100D10009A81880F991F9E012F5F3F4F820F931F6B
:100D20000596FC0180819181FC0115821682178253
:100D3000108689819A81880F991F9E012F5F3F4FEE
:100D4000820F931F0596FC012081318189819A8150
:100D5000880F991FAE014F5F5F4F840F951F059657
:100D6000FC0180819181FC0185819681A781B085FC
:100D70000196A11DB11DF90185839683A783B087D4
:100D800089819A8101969A83898329813A818B810D
:100D90009C812817390708F45DCF000080914C0131
:100DA0008823E1F310924C0152CFA1E21A2EAA1B24
:100DB000BB1BFD010DC0AA1FBB1FEE1FFF1FA2170B
:100DC000B307E407F50720F0A21BB30BE40BF50B08
:100DD000661F771F881F991F1A9469F76095709591
:100DE000809590959B01AC01BD01CF010895F894C9
:020DF000FFCF33
:100DF2000000000200000000670000000000010087
:100E020000001B1B1B1B03111801801B1B1B1B1B40
:100E12001B1B1B0204081020408000804020100889
:100E22000402011E1D1B170F171B1D0303031118BC
:0C0E32000101FFFF5B01660171017C0102
:00000001FF
