:100000000C9446000C9465000C9465000C946500FB
:100010000C9465000C9465000C9465000C946500CC
:100020000C9465000C9465000C9465000C946500BC
:100030000C9465000C94DE000C9465000C94650033
:100040000C9465000C9465000C9465000C9465009C
:100050000C9465000C9465000C9465000C9465008C
:100060000C9465000C9465000C9465000C9465007C
:100070000C9465000C9465000C9465000C9465006C
:100080000C9465000C9465000C94650011241FBE4F
:10009000CFEFD0E4DEBFCDBF11E0A0E0B1E0E0E8FB
:1000A000FCE000E00BBF02C007900D92A434B10742
:1000B000D9F721E0A4E4B1E001C01D92A138B20754
:1000C000E1F70E949D040C943E060C940000CF932F
:1000D000DF9300D01F92CDB7DEB789837B836A831D
:1000E00089818A3031F48A819B81BC018DE00E9434
:1000F000670080EC90E0FC018081882F90E08072A6
:100100009927892BB1F386EC90E02981FC012083AB
:1001100080E090E00F900F900F90DF91CF910895C5
:10012000CF93DF93CDB7DEB781E080934401000029
:10013000DF91CF910895CF93DF93CDB7DEB781E8FC
:1001400090E0FC0110820000DF91CF910895CF93E1
:10015000DF93CDB7DEB781E890E02BE0FC01208390
:1001600088E890E02DE730E0FC01318320838FE6C2
:1001700090E022E0FC01208384E890E0FC01118201
:10018000108280910E0190910F01A0911001B09109
:1001900011018093450190934601A0934701B093CC
:1001A00048018FE590E02FE530E0F90120812068DB
:1001B000FC0120830000DF91CF9108951F920F92E0
:1001C00000905F000F92112400905B000F922F931C
:1001D0003F934F935F936F937F938F939F93AF93CF
:1001E000BF93EF93FF93CF93DF93CDB7DEB78091AB
:1001F000450190914601A0914701B09148010197B6
:10020000A109B1098093450190934601A09347014C
:10021000B09348018091450190914601A09147011A
:10022000B0914801892B8A2B8B2B91F40E9490006E
:1002300080910E0190910F01A0911001B0911101D8
:100240008093450190934601A0934701B0934801E4
:100250000000DF91CF91FF91EF91BF91AF919F91FE
:100260008F917F916F915F914F913F912F910F905F
:1002700000925B000F9000925F000F901F90189506
:10028000CF93DF9300D000D0CDB7DEB769837A83F8
:100290008B839C8389819A81AB81BC8180930E0181
:1002A00090930F01A0931001B093110180910E0162
:1002B00090910F01A0911001B0911101809345011F
:1002C00090934601A0934701B093480100000F901E
:1002D0000F900F900F90DF91CF910895CF93DF9300
:1002E000CDB7DEB72C970FB6F894DEBF0FBECDBFEB
:1002F0006D837E838F83988729873A874B875C87B6
:100300008D819E81AF81B88529853A854B855C8535
:10031000BC01CD010E941C06DC01CB0189839A83BC
:10032000AB83BC8389819A81AB81BC81892B8A2B69
:100330008B2B29F489859A85AB85BC8511C089856D
:100340009A85AB85BC858D839E83AF83B887898171
:100350009A81AB81BC8189879A87AB87BC87D0CFD4
:10036000BC01CD012C960FB6F894DEBF0FBECDBFF9
:10037000DF91CF910895CF93DF9300D0CDB7DEB753
:100380009A83898389819A8182309105D9F183305A
:1003900091052CF4009771F0019789F074C08430B6
:1003A000910509F448C0843091058CF1059709F452
:1003B00056C069C081E090E09A83898367C080E27B
:1003C00090E0FC018081882F90E081709927892B33
:1003D00029F482E090E09A83898358C080E290E01B
:1003E000FC018081882F90E082709927892B29F465
:1003F00084E090E09A83898349C081E090E09A8309
:10040000898344C083E090E09A8389833FC080E27F
:1004100090E0FC018081882F90E081709927892BE2
:1004200029F483E090E09A83898330C081E090E0F2
:100430009A8389832BC080E290E0FC018081882F21
:1004400090E082709927892B29F485E090E09A83C7
:1004500089831CC084E090E09A83898317C080E27E
:1004600090E0FC018081882F90E082709927892B91
:1004700029F485E090E09A83898308C081E090E0C8
:100480009A83898303C01A821982000089819A8124
:100490008230910589F0833091052CF4009701F1A9
:1004A000019701F128C08430910581F084309105D5
:1004B000DCF00597D9F01FC080911D018230C0F497
:1004C00080911D018F5F80931D0112C080911D01DD
:1004D000882381F080911D01815080931D010AC005
:1004E000000009C0000007C0000005C0000003C0F4
:1004F000000001C0000089819A810F900F90DF9168
:10050000CF910895CF93DF9300D0CDB7DEB79A8314
:10051000898389819A8182309105E1F18330910547
:100520002CF4009779F0019791F084C08430910504
:1005300009F458C0843091050CF440C0059709F4C3
:1005400065C078C081E090E09A83898376C080E2BC
:1005500090E0FC018081882F90E084709927892B9E
:1005600029F482E090E09A83898367C080E290E07A
:10057000FC018081882F90E088709927892B29F4CD
:1005800084E090E09A83898358C081E090E09A8368
:10059000898353C080E290E0FC018081882F90E045
:1005A00084709927892B29F483E090E09A838983CA
:1005B00044C082E090E09A8389833FC080E290E06B
:1005C000FC018081882F90E084709927892B29F481
:1005D00083E090E09A83898330C081E090E09A8341
:1005E00089832BC080E290E0FC018081882F90E01D
:1005F00088709927892B29F485E090E09A83898374
:100600001CC084E090E09A83898317C080E290E068
:10061000FC018081882F90E088709927892B29F42C
:1006200085E090E09A83898308C081E090E09A8316
:10063000898303C01A821982000089819A818230DD
:10064000910589F0833091052CF4009701F1019711
:1006500001F128C08430910581F084309105DCF0EF
:100660000597D9F01FC080913A018230C0F4809183
:100670003A018F5F80933A0112C080913A0188233A
:1006800081F080913A01815080933A010AC00000C4
:1006900009C0000007C0000005C0000003C0000042
:1006A00001C0000089819A810F900F90DF91CF9156
:1006B0000895CF93DF9300D0CDB7DEB79A838983B7
:1006C00089819A818230910509F497C08330910520
:1006D00034F4009779F0019709F444C0ACC0843039
:1006E000910509F456C08430910504F1059709F489
:1006F00067C0A1C08BE290E020914C01222F30E036
:10070000265E3E4FF9012081FC01208388E290E0C3
:1007100020E8FC01208380E880931E0181E0809323
:100720003B0181E090E09A83898385C088E290E074
:1007300021E0FC0120838BE290E020914C01222FEC
:1007400030E0265E3E4FF9012081FC01208380E8E5
:1007500080931E0181E080933B0181E090E09A83C9
:10076000898369C08BE290E020911D01222F30E047
:10077000265E3E4FF9012081FC01208388E290E053
:1007800020911E01FC01208384E090E09A838983FC
:1007900052C088E290E020913B01FC0120838BE273
:1007A00090E020913A01222F30E0295C3E4FF90180
:1007B0002081FC01208385E090E09A8389833BC0FF
:1007C00088E290E020914B01222F30E02E5E3E4FD8
:1007D000F9012081FC0120838BE290E020914B0104
:1007E000222F30E0215D3E4FF9012081FC01208362
:1007F00081E090E09A8389831EC080E290E0FC0152
:100800008081882F90E081709927892B51F080E2B8
:1008100090E0FC018081882F90E082709927892BDD
:1008200029F481E090E09A83898304C085E090E018
:100830009A838983000089819A810F900F90DF91BC
:10084000CF910895CF93DF9300D0CDB7DEB79A83D1
:10085000898389819A81009719F0019731F009C045
:1008600081E090E09A83898309C081E090E09A83D7
:10087000898381E090E09A838983000089819A814D
:10088000009719F0019791F051C080E290E0FC01CF
:100890008081882F90E081709927892B19F41A8222
:1008A000198204C081E090E09A83898380914B0192
:1008B0008730C8F480914B01882F90E08E5E9E4F68
:1008C000FC0180818093490180914B01882F90E049
:1008D000815D9E4FFC01808180934A0180914B0194
:1008E0008F5F80934B0180914B018730E1F4109230
:1008F0004B0180914B01882F90E0815E9E4FFC015F
:1009000080818093490180914B01882F90E0895D1F
:100910009E4FFC01808180934A0180914B018F5F43
:1009200080934B0102C010924B01000089819A8193
:100930000F900F90DF91CF9108950F931F93CF9356
:10094000DF93CDB7DEB72D970FB6F894DEBF0FBE9D
:10095000CDBF81E290E0FC01108282E290E02FEFB7
:10096000FC01208387E290E02FEFFC01208388E2E6
:1009700090E0FC0110828AE290E02FEFFC012083DE
:100980008BE290E0FC01108288E0ECE3F1E0DE0114
:10099000169601900D928A95E1F784E090E09C8391
:1009A0008B831D828D8180934F0181E090E0A0E0D8
:1009B000B0E08093500190935101A0935201B09305
:1009C00053018091500190915101A0915201B09139
:1009D00053018093540190935501A0935601B09315
:1009E00057018BEB91E090935901809358018D81D1
:1009F00080935A0183E090E0A0E0B0E080935B0137
:100A000090935C01A0935D01B0935E0180915B01C6
:100A100090915C01A0915D01B0915E0180935F01B6
:100A200090936001A0936101B093620189E593E026
:100A300090936401809363018D818093650181E0CF
:100A400090E0A0E0B0E08093660190936701A093EE
:100A50006801B09369018091660190916701A0914E
:100A60006801B091690180936A0190936B01A09332
:100A70006C01B0936D0182E892E090936F018093D6
:100A80006E018D818093700188EC90E0A0E0B0E071
:100A90008093710190937201A0937301B0937401DC
:100AA0008091710190917201A0917301B0917401D4
:100AB0008093750190937601A0937701B0937801AC
:100AC00082E294E090937A018093790161E070E092
:100AD00080E090E00E9440010E94A7001A821982E3
:100AE0009BC089819A81880F991F9E012F5F3F4F7C
:100AF000820F931F0596FC0180819181FC01258165
:100B000036814781508589819A81880F991FBE015E
:100B10006F5F7F4F860F971F0596FC018081918143
:100B2000FC0181819281A381B481281739074A078A
:100B30005B0709F045C089819A81880F991F9E0142
:100B40002F5F3F4F820F931F0596FC01008111819B
:100B500089819A81880F991F9E012F5F3F4F820FD5
:100B6000931F0596FC0180819181FC0121853285CE
:100B700089819A81880F991FAE014F5F5F4F840F63
:100B8000951F0596FC0180819181FC018081082ED2
:100B9000000C990BF9010995F801808389819A81EC
:100BA000880F991F9E012F5F3F4F820F931F05965D
:100BB000FC0180819181FC011582168217821086CA
:100BC00089819A81880F991F9E012F5F3F4F820F65
:100BD000931F0596FC012081318189819A81880FBC
:100BE000991FAE014F5F5F4F840F951F0596FC0163
:100BF00080819181FC0185819681A781B0850196D4
:100C0000A11DB11DF90185839683A783B0878981D2
:100C10009A8101969A83898329813A818B819C816B
:100C20002817390708F45DCF00008091440188231C
:100C3000E1F31092440152CFA1E21A2EAA1BBB1B72
:100C4000FD010DC0AA1FBB1FEE1FFF1FA217B30798
:100C5000E407F50720F0A21BB30BE40BF50B661FAE
:100C6000771F881F991F1A9469F760957095809572
:100C700090959B01AC01BD01CF010895F894FFCF81
:100C800000000002000000006700000000000100FA
:100C90000000804020100804020103111801801B8D
:100CA0001B1B1B1B1B1B1B02040810204080001E6B
:100CB0001D1B170F171B1D03111801014F015A01AE
:040CC0006501700159
:00000001FF
