:100000000C944F000C946E000C946E000C946E00D7
:100010000C946E000C946E000C946E000C946E00A8
:100020000C946E000C946E000C946E000C946E0098
:100030000C946E000C94E7000C946E000C946E000F
:100040000C946E000C946E000C946E000C946E0078
:100050000C946E000C946E000C946E000C946E0068
:100060000C946E000C946E000C946E000C946E0058
:100070000C946E000C946E000C946E000C946E0048
:100080000C946E000C946E000C946E008905C105F2
:10009000A505D8053006EF050F068E066E0611245D
:1000A0001FBECFEFD0E4DEBFCDBF11E0A0E0B1E0D6
:1000B000EAECF0E100E00BBF02C007900D92A6331E
:1000C000B107D9F721E0A6E3B1E001C01D92A23744
:1000D000B207E1F70E94B9060C9463080C94000083
:1000E000CF93DF9300D01F92CDB7DEB789837B8398
:1000F0006A8389818A3031F48A819B81BC018DE0D9
:100100000E94700080EC90E0FC018081882F90E0DC
:1001100080729927892BB1F386EC90E02981FC014C
:10012000208380E090E00F900F900F90DF91CF91AF
:100130000895CF93DF93CDB7DEB781E0809336018A
:100140000000DF91CF910895CF93DF93CDB7DEB755
:1001500081E890E0FC0110820000DF91CF910895CA
:10016000CF93DF93CDB7DEB781E890E02BE0FC01C1
:10017000208388E890E02DE730E0FC013183208384
:100180008FE690E022E0FC01208384E890E0FC010F
:100190001182108280910E0190910F01A0911001A7
:1001A000B09111018093370190933801A0933901E8
:1001B000B0933A018FE590E02FE530E0F90120811E
:1001C0002068FC0120830000DF91CF9108951F92E9
:1001D0000F9200905F000F92112400905B000F922D
:1001E0002F933F934F935F936F937F938F939F933F
:1001F000AF93BF93EF93FF93CF93DF93CDB7DEB76A
:100200008091370190913801A0913901B0913A0164
:100210000197A109B1098093370190933801A09308
:100220003901B0933A018091370190913801A09142
:100230003901B0913A01892B8A2B8B2B91F40E94C2
:10024000990080910E0190910F01A0911001B09141
:1002500011018093370190933801A0933901B09335
:100260003A010000DF91CF91FF91EF91BF91AF91E3
:100270009F918F917F916F915F914F913F912F91BE
:100280000F9000925B000F9000925F000F901F9004
:100290001895CF93DF9300D000D0CDB7DEB7698338
:1002A0007A838B839C8389819A81AB81BC81809383
:1002B0000E0190930F01A0931001B0931101809152
:1002C0000E0190910F01A0911001B0911101809346
:1002D000370190933801A0933901B0933A0100009F
:1002E0000F900F900F900F90DF91CF910895CF93C3
:1002F000DF93CDB7DEB72C970FB6F894DEBF0FBEF5
:10030000CDBF6D837E838F83988729873A874B87FC
:100310005C878D819E81AF81B88529853A854B8523
:100320005C85BC01CD010E943808DC01CB018983CA
:100330009A83AB83BC8389819A81AB81BC81892BF1
:100340008A2B8B2B29F489859A85AB85BC8511C0B6
:1003500089859A85AB85BC858D839E83AF83B8875D
:1003600089819A81AB81BC8189879A87AB87BC8759
:10037000D0CFBC01CD012C960FB6F894DEBF0FBED6
:10038000CDBFDF91CF910895CF93DF9300D0CDB74C
:10039000DEB79A83898389819A8182309105D9F168
:1003A000833091052CF4009771F0019789F074C0A7
:1003B0008430910509F448C0843091058CF105978B
:1003C00009F456C069C081E090E09A83898367C0D0
:1003D00080E290E0FC018081882F90E08170992775
:1003E000892B29F482E090E09A83898358C080E2C7
:1003F00090E0FC018081882F90E082709927892B02
:1004000029F484E090E09A83898349C081E090E0F8
:100410009A83898344C083E090E09A8389833FC0B4
:1004200080E290E0FC018081882F90E08170992724
:10043000892B29F483E090E09A83898330C081E09E
:1004400090E09A8389832BC080E290E0FC01808158
:10045000882F90E082709927892B29F485E090E01D
:100460009A8389831CC084E090E09A83898317C0B3
:1004700080E290E0FC018081882F90E082709927D3
:10048000892B29F485E090E09A83898308C081E074
:1004900090E09A83898303C01A82198200008981BF
:1004A0009A818230910589F0833091052CF4009770
:1004B00001F1019701F128C08430910581F0843069
:1004C0009105DCF00597D9F01FC0809115018230AD
:1004D000C0F4809115018F5F8093150112C0809147
:1004E0001501882381F080911501815080931501B9
:1004F0000AC0000009C0000007C0000005C00000DD
:1005000003C0000001C0000089819A810F900F9004
:10051000DF91CF910895CF93DF9300D0CDB7DEB7B1
:100520009A83898389819A8182309105E1F18330B0
:1005300091052CF4009779F0019791F084C08430F4
:10054000910509F458C0843091050CF440C005971A
:1005500009F465C078C081E090E09A83898376C011
:1005600080E290E0FC018081882F90E084709927E0
:10057000892B29F482E090E09A83898367C080E226
:1005800090E0FC018081882F90E088709927892B6A
:1005900029F484E090E09A83898358C081E090E058
:1005A0009A83898353C080E290E0FC018081882F88
:1005B00090E084709927892B29F483E090E09A8356
:1005C000898344C082E090E09A8389833FC080E2BF
:1005D00090E0FC018081882F90E084709927892B1E
:1005E00029F483E090E09A83898330C081E090E031
:1005F0009A8389832BC080E290E0FC018081882F60
:1006000090E088709927892B29F485E090E09A83FF
:1006100089831CC084E090E09A83898317C080E2BC
:1006200090E0FC018081882F90E088709927892BC9
:1006300029F485E090E09A83898308C081E090E006
:100640009A83898303C01A821982000089819A8162
:100650008230910589F0833091052CF4009701F1E7
:10066000019701F128C08430910581F08430910513
:10067000DCF00597D9F01FC0809129018230C0F4C9
:10068000809129018F5F8093290112C080912901F7
:10069000882381F0809129018150809329010AC02B
:1006A000000009C0000007C0000005C0000003C032
:1006B000000001C0000089819A810F900F90DF91A6
:1006C000CF910895CF93DF9300D0CDB7DEB79A8353
:1006D000898389819A818230910541F18330910526
:1006E0002CF4009751F0019769F05DC083309105BB
:1006F00011F1049709F440C056C081E090E09A835C
:10070000898354C080E290E0FC018081882F90E0D2
:1007100081709927892B29F482E090E09A8389835C
:1007200045C082E090E09A83898340C083E090E0F6
:100730009A8389833BC080912501882361F480914D
:100740001501882341F481E080933E0181E090E02F
:100750009A8389832BC080912501873041F481E001
:1007600080933D0181E090E09A8389831FC083E0FC
:1007700090E09A8389831AC080913D01882329F0F3
:1007800081E090E09A83898311C080913E018823A3
:1007900029F081E090E09A83898308C083E090E0AB
:1007A0009A83898303C01A821982000089819A8101
:1007B0008230910509F466C0833091052CF40097CE
:1007C00039F0019751F082C1039709F460C07EC1EE
:1007D00010923D0110923E0179C180913D01882324
:1007E000D1F480913E018823B1F48FEF80932B01E7
:1007F00010922C0181E08093240182E080932501F6
:1008000081E08093150181E08093290110923D01E0
:1008100010923E0158C180913D018823B9F081E0DA
:1008200080932B0110922C0182E08093240182E0BE
:100830008093250181E08093150181E08093290157
:1008400080913B018F5F80933B013DC180913E01D0
:10085000882309F438C18FEF80932B0110922C016B
:1008600082E08093240182E08093250181E08093DF
:10087000150181E08093290180913C018F5F809375
:100880003C0121C110923D0110923E011FC1809197
:10089000240190912C01890F8093240180912501DE
:1008A00090912B01890F8093250180912401843040
:1008B00020F480912401882329F480912C018195D2
:1008C00080932C0180912501823008F07DC08091B9
:1008D0002401882361F480911501823009F0F5C06C
:1008E00081E080932B0181E080932C01EEC0809108
:1008F00024018130B1F480911501813039F481E017
:1009000080932B0181E080932C01DFC08091150141
:10091000823009F0DAC081E080932B0110922C0123
:10092000D4C080912401823009F58091150188237B
:1009300039F481E080932B0181E080932C01C5C0C4
:1009400080911501813031F481E080932B01109268
:100950002C01BBC080911501823009F0B6C081E046
:1009600080932B018FEF80932C01AFC080912401E5
:100970008330B1F480911501882331F481E08093B4
:100980002B0110922C01A1C080911501813009F03A
:100990009CC081E080932B018FEF80932C0195C048
:1009A00080912401843061F480911501882309F03D
:1009B0008CC081E080932B018FEF80932C0185C048
:1009C00081E080933E0181C080912501863008F44A
:1009D0007CC080912401882361F4809129018230B8
:1009E00009F073C08FEF80932B018FEF80932C0160
:1009F0006CC0809124018130B1F480912901813053
:100A000039F48FEF80932B0181E080932C015DC03E
:100A100080912901823009F058C08FEF80932B011B
:100A200010922C0152C080912401823001F58091F6
:100A30002901882339F48FEF80932B0181E0809383
:100A40002C0143C080912901813031F48FEF8093D4
:100A50002B0110922C0139C0809129018230A9F517
:100A60008FEF80932B018FEF80932C012EC080910C
:100A700024018330A9F480912901882331F48FEF78
:100A800080932B0110922C0120C08091290181308C
:100A9000E1F48FEF80932B018FEF80932C0115C031
:100AA00080912401843059F480912901882369F4CC
:100AB0008FEF80932B018FEF80932C0106C081E094
:100AC00080933D0102C0000001C0000089819A812D
:100AD0000F900F90DF91CF910895CF93DF9300D0C7
:100AE000CDB7DEB79A83898389819A81092E000C5C
:100AF000AA0BBB0B40E050E028E030E0841B950BD4
:100B00002817390708F42EC18A5B9F4FFC010C940B
:100B10005A088BE290E020913F01222F30E02E5EB8
:100B20003E4FF9012081FC01208388E290E020E81B
:100B3000FC01208380E88093160181E080932A01E4
:100B400081E090E09A8389830DC188E290E021E002
:100B5000FC0120838BE290E020913F01222F30E0C6
:100B60002E5E3E4FF9012081FC01208380E88093B6
:100B7000160181E080932A0181E090E09A838983C5
:100B8000F1C08BE290E020911501222F30E02E5E23
:100B90003E4FF9012081FC01208388E290E0209102
:100BA0001601FC01208383E090E09A838983DAC0F8
:100BB00088E290E020912A01FC0120838BE290E002
:100BC00020912901222F30E02A5D3E4FF90120813A
:100BD000FC01208385E090E09A838983C3C08091E3
:100BE0003B01833049F488E290E020E1FC0120835E
:100BF0008BE290E0FC01108280E290E0FC018081B9
:100C0000882F90E080719927892B21F488E090E06B
:100C10009A83898386E090E09A838983A3C0809138
:100C20003C01833049F488E290E021E0FC0120831C
:100C30008BE290E0FC01108280E290E0FC01808178
:100C4000882F90E080719927892B29F488E090E023
:100C50009A83898387C084E090E09A83898382C0E5
:100C600080913B01833029F485E090E09A83898369
:100C700079C080913C01833029F486E090E09A832A
:100C8000898370C080E290E0FC018081882F90E031
:100C900080719927892B29F488E090E09A838983D1
:100CA00061C088E290E020912501222F30E0295E8A
:100CB0003E4FF9012081FC0120838BE290E02091DE
:100CC0002401222F30E0215E3E4FF9012081FC01FA
:100CD000208381E090E09A83898344C010923B0195
:100CE00010923C0188E290E021E0FC0120838BE23D
:100CF00090E020913F01222F30E02E5E3E4FF9011F
:100D00002081FC01208380E88093160181E080939C
:100D10002A0187E090E09A83898324C010923F01E2
:100D200080E88093160181E080932A018BE290E0B5
:100D300021E1FC01208388E290E020E8FC0120838F
:100D400080E290E0FC018081882F90E080719927FB
:100D5000892B19F41A82198204C087E090E09A83E3
:100D60008983000089819A810F900F90DF91CF9144
:100D700008950F931F93CF93DF93CDB7DEB72D97D1
:100D80000FB6F894DEBF0FBECDBF81E290E0FC014C
:100D9000108282E290E02FEFFC01208387E290E056
:100DA0002FEFFC01208388E290E0FC0110828AE2B0
:100DB00090E02FEFFC0120838BE290E0FC01108299
:100DC00088E0EDE2F1E0DE01169601900D928A9541
:100DD000E1F784E090E09C838B831D828D8180937A
:100DE000400181E090E0A0E0B0E080934101909369
:100DF0004201A0934301B09344018091410190913D
:100E00004201A0914301B091440180934501909328
:100E10004601A0934701B093480184EC91E0909380
:100E20004A01809349018D8180934B0183E090E0DA
:100E3000A0E0B0E080934C0190934D01A0934E014F
:100E4000B0934F0180914C0190914D01A0914E01C2
:100E5000B0914F018093500190935101A0935201A2
:100E6000B09353018DE695E0909355018093540122
:100E70008D818093560181E090E0A0E0B0E0809306
:100E8000570190935801A0935901B0935A01809152
:100E9000570190915801A0915901B0915A01809346
:100EA0005B0190935C01A0935D01B0935E018BE8C0
:100EB00092E09093600180935F018D818093610146
:100EC0008CE291E0A0E0B0E0809362019093630136
:100ED000A0936401B09365018091620190916301D8
:100EE000A0916401B09165018093660190936701C0
:100EF000A0936801B093690182E693E090936B013F
:100F000080936A0161E070E080E090E00E94490116
:100F10000E94B0001A8219829BC089819A81880F31
:100F2000991F9E012F5F3F4F820F931F0596FC0173
:100F300080819181FC01258136814781508589819D
:100F40009A81880F991FBE016F5F7F4F860F971F91
:100F50000596FC0180819181FC0181819281A381B0
:100F6000B481281739074A075B0709F045C0898112
:100F70009A81880F991F9E012F5F3F4F820F931F09
:100F80000596FC010081118189819A81880F991F42
:100F90009E012F5F3F4F820F931F0596FC018081BA
:100FA0009181FC012185328589819A81880F991F61
:100FB000AE014F5F5F4F840F951F0596FC01808146
:100FC0009181FC018081082E000C990BF901099593
:100FD000F801808389819A81880F991F9E012F5F74
:100FE0003F4F820F931F0596FC0180819181FC0188
:100FF000158216821782108689819A81880F991F1F
:101000009E012F5F3F4F820F931F0596FC012081A9
:10101000318189819A81880F991FAE014F5F5F4F9F
:10102000840F951F0596FC0180819181FC018581CB
:101030009681A781B0850196A11DB11DF901858317
:101040009683A783B08789819A8101969A83898341
:1010500029813A818B819C812817390708F45DCF5B
:101060000000809136018823E1F31092360152CFBF
:10107000A1E21A2EAA1BBB1BFD010DC0AA1FBB1F9C
:10108000EE1FFF1FA217B307E407F50720F0A21B0E
:10109000B30BE40BF50B661F771F881F991F1A947B
:1010A00069F760957095809590959B01AC01BD01A5
:1010B000CF010895EE0FFF1F0024001C0BBE079008
:0A10C000F691E02D0994F894FFCF9B
:1010CA0000000002000000007000000000000100A3
:1010DA000000031118018080402010080402011E3C
:1010EA001D1B170F03030311180101FFFF40014BDA
:0610FA0001560161010036
:00000001FF
